:0A0000000C9471060C9400000C949F
:10000A0000000C9400000C9400000C9400000C9466
:10001A0000000C9400000C9400000C9400000C9456
:10002A0000000C9400000C9400000C9400000C9446
:10003A0000000C9400000C9400000C9400000C9436
:10004A0000000C9400000C94000000000000000066
:10005A000000000000000000000000000000000096
:10006A000000000000000000000000000000000086
:10007A000000000000000000000000000000000076
:10008A000000000000000000000000000000000066
:10009A000000000000000000000000000000000056
:1000AA000000000000000000000000000000000046
:1000BA000000000000000000000000000000000036
:1000CA00000000000000000000002020282868B07E
:1000DA0060202020282A28302020008080443224D2
:1000EA002020002424243820202020202020242AF4
:1000FA001100202020242A11202030202020242A08
:10010A001120202030203028281820242221242AB7
:10011A001100242221242A11202030242221242AD9
:10012A001120008080403020202020202060A06004
:10013A00283020202060B060202000302860A06095
:10014A0030200004061D25242020000000000000A5
:10015A00000000004F000000000000070007000038
:10016A00000000147F147F14000000242A7F2A1242
:10017A00000000231308646200000036495522403B
:10018A0000000000050300000000001C22410000DE
:10019A0000000041221C000000000014083E081460
:1001AA0000000008083E08080000000028180000A7
:1001BA0000000008080808080800003030000000A5
:1001CA0000000020100804020000003E5149453E8C
:1001DA0000000000427F4000000000426151494691
:1001EA000000002141454B310000001814127F1015
:1001FA0000000000274545453900003C4A4949307E
:10020A00000000017109050300000036494949361A
:10021A00000000064949291E000000003636000089
:10022A0000000000563600000000000814224100B9
:10023A000000002424242424000000004122140881
:10024A000000000201510906000000324979413ECE
:10025A000000007E1111117E0000007F49494936D5
:10026A000000003E414141220000007F4141221C22
:10027A000000007F494949410000007F090909013E
:10028A000000003E4149493A0000007F0808087F03
:10029A0000000000417F41000000002040413F0172
:1002AA000000007F081422410000007F40404040C7
:1002BA000000007F020C027F0000007F0408107F0C
:1002CA000000003E4141413E0000007F0909090645
:1002DA0000003E4151215E000000007F09192946B5
:1002EA00000000464949493100000001017F01012F
:1002FA000000003F4040403F0000001F2040201FF8
:10030A000000003F4060403F00000063140814638F
:10031A0000000007087008070000006151494543C2
:10032A000000007F4141000000000015167C1615F0
:10033A0000000041417F00000000000402010204A5
:10034A00000000404040404000000001020400005C
:10035A0000000020545454780000007F444444387C
:10036A000000003844444400000000384444487FF8
:10037A000000003854545418000000107E11010285
:10038A000000000C5252523E0000007F080404781C
:10039A0000000000447D40000000002040403D0075
:1003AA000000007F1028440000000000417F400048
:1003BA000000007C041804780000007C080404781B
:1003CA0000000038444444380000007C1414140827
:1003DA00000000081414187C0000007C08040408BB
:1003EA000000004854545420000000043F444020B8
:1003FA000000003C4040207C0000001C2040201CE3
:10040A000000001E2010201E0000002214081422E2
:10041A00000000064848483E0000004464544C442A
:10042A00000000083641000000000000007F0000C4
:10043A00000000413608000000000008082A1C08D5
:10044A00000000081C2A08080000003C4241423C07
:10045A00000000302860A060283020202020A02042
:10046A00283020202020B020202000302820A02062
:10047A003020202020222022283020202022302232
:10048A002020003028222022302020202022212251
:10049A002830202020223122202000302822212228
:1004AA0030202020282828B0202020202828283062
:1004BA00202000C0A82868B0602000008080443254
:1004CA000400002425243820202030242221242A34
:1004DA00110000808040342020202020203820383D
:1004EA002018202038203820382060808078203852
:1004FA002018202020382239221820203822392298
:10050A003820608080782239221830202020242A3E
:10051A001100203020302828382060808060302860
:10052A0028382020302030282A1820302030282A45
:10053A0038206080806030282A3820203E302828E1
:10054A00382020203E30282A382020202020302819
:10055A00280020202030282820200040A0B0282869
:10056A0020202020202030282A0020202030282A5D
:10057A0020200040A0B0282A202020202020302837
:10058A002A30202030282A30202000182020302825
:10059A002A3020202020302A28322020302A2832CF
:1005AA002020608080B2A87A2020222525252525B2
:1005BA0025192020201C2221202030282C2A203FE7
:1005CA0020202020202020201F00202020201F2043
:1005DA002020003040403F2020202020202030488A
:1005EA004830202030484830202080403048483069
:1005FA0020202020202022201800202020201A201D
:10060A002020304044403020202020202030283A2A
:10061A002C18202030283A2C3820001814141820BE
:10062A0020200021222428100F0000B0A8782020C2
:10063A002020202020A020A02830202020A030A088
:10064A00202000608080A0501020001E2020202042
:10065A0020200020302828200000000402023A024C
:10066A000201000004063D050400000004B6AD7D49
:10067A000400000080C0BFA0800004668595A8A879
:10068A0048000000003F0000000000302820A020A1
:10069A0028300000302A2832000000302822202288
:1006AA002830003028222122283000C0A8A828B0EB
:1006BA00202000C0A8A8A830202000C0A8AA28305E
:1006CA002020000024242438000000002425243897
:1006DA00000000808040300000000000808040342C
:1006EA000000608080782038201860808078223965
:1006FA002218608080603028281860808060302846
:10070A002A18002214081422000020203E3028282B
:10071A00180020203E30282A1800000040A0B028E7
:10072A002800000040A0B02A2800202020202020F5
:10073A0020200018202030282A3000608080B2A8AB
:10074A007A000030282C2A203F000040A9AAA8F0ED
:10075A00000000006080807E00000040AAA9AAF084
:10076A0000000000C0203028283000006080888007
:10077A0060000000302828300000000000B0A8788F
:10078A0000000426252528100F00042222262910FD
:10079A000F0000212224A8D0AFA00070AAA9AA3075
:1007AA0000000070AAA8AA3000000030404050287B
:1007BA0008000030C040D02808000000027902007A
:1007CA00000000000278020000000000000000059E
:1007DA00050500000004030B0606A0A0A000000007
:1007EA00000000000101010100000021222428105C
:1007FA002F20000000000004030300008080808096
:10080A00000000001010541010000000020402043E
:10081A0002002024262525202830202426253520BC
:10082A002020086C8A8AA050102004B6AD7D2420AE
:10083A00202000191415182020200402021A22224E
:10084A0021200040605048504040C1C1C1C1000051
:10085A00C2C2FEFE0100C3C31F1F0100C4C4FCFCC8
:10086A000100C5C5C5C50101C6BDBFBE0101C7C7D7
:10087A00C0C00100C88284830101C9C9FDFD01000D
:10088A00CA8587860101CB888A890101CC8BCC8BEA
:10089A000101CD8CCD8C0101CE11CE110101CFCF3A
:1008AA0013130100D0D08F8F0100D1D11B1B01007F
:1008BA00D2D291910100D39294930101D495979643
:1008CA000101D5179A990101D69B9D9C0101D7D7A1
:1008DA00D7D70000D8D89E9E0101D9D99F9F010180
:1008EA00DAA0A2A10101DBA3A5A40101DCDCDCDC06
:1008FA000000DDA6A8A70101DEA9ABAA0101DFACB1
:10090A00AEAD0101E0E0E0E00000E1AFB1B001010D
:10091A00E2E2E2E20000E3B2B4B30101E4B5B7B641
:10092A000101E5B8BAB90101E6E6BCBC0100E7E796
:10093A00E7E70000E8E8E8E80000E9E9E9E900009B
:10094A00EAEAEAEA0000EBEBEBEB0000ECBDBFBE23
:10095A000101EDBDBFBE0101EEEEEEEE0000EFEFCC
:10096A00EFEF0000F0F0F0F00000F1F1F1F100001B
:10097A00F2F2F2F20000F3F3F3F30000F5F5F5F505
:10098A000000F6F6F6F60000F7F7F7F70000F8F8B9
:10099A00F8F80000FBF9FBFA0101BBBBF4F4010013
:1009AA00811C1E1D010190181A19010198141615AF
:1009BA0001018E8E121201008D108D100101102777
:1009CA00E80364000A0001000010000110000100A1
:1009DA00C100332D54454D5045524154555245009E
:1009EA00322D444946494E45205041545445524EB1
:1009FA0000312D53454C45435420504154544552DF
:100A0A004E00484F4D4500382D5041545445524EE2
:100A1A003800372D5041545445524E3700362D5028
:100A2A0041545445524E3600352D50415454455286
:100A3A004E3500342D5041545445524E3400332D16
:100A4A005041545445524E3300322D50415454456E
:100A5A00524E3200312D5041545445524E3100000D
:100A6A00313030303030303030303030303030307B
:100A7A0030303030303030300000313030313030CA
:100A8A00303030303030303030303030303030305C
:100A9A0030300000313031303030303030303030AA
:100AAA00303030303030303030303030000031309B
:100ABA00313130303030303030303030303030302A
:100ACA00303030303030000031313030303030307A
:100ADA00303030303030303030303030303030300C
:100AEA000000313130313030303030303030303059
:100AFA003030303030303030303000003131313049
:100B0A0030303030303030303030303030303030DB
:100B1A003030303000003131313130303030303027
:100B2A00303030303030303030303030303000001B
:100B3A00484F4D4500382D5041545445524E3800C7
:100B4A00372D5041545445524E3700362D5041549A
:100B5A005445524E3600352D5041545445524E3567
:100B6A0000342D5041545445524E3400332D5041D7
:100B7A00545445524E3300322D5041545445524E2E
:100B8A003200312D5041545445524E3100007365A4
:100B9A006C65637420626C6F636B006E65770030FE
:100BAA00313131313131313131313131313131312B
:100BBA00000073656C65637420626C6F636B006E12
:100BCA0065770030303130313031303130313031C9
:100BDA0030313031000073656C65637420626C6F6C
:100BEA00636B006E6577003030313130303031312F
:100BFA003030313130303131000073656C656374E7
:100C0A0020626C6F636B006E657700303030313173
:100C1A0030313131313131303130313100007365A9
:100C2A006C65637420626C6F636B006E657700306D
:100C3A0030303031303131313131313031313031A0
:100C4A00000073656C65637420626C6F636B006E81
:100C5A00657700303131313130303030303030303A
:100C6A0031313131000073656C65637420626C6FD9
:100C7A00636B006E6577003030313031313131319C
:100C8A003131313030313031000073656C65637455
:100C9A0020626C6F636B006E6577003030313031E3
:100CAA003131303130313131303131310000484F5A
:100CBA004D450054656D703D00002573000001002C
:100CCA002D4E414E00494E46000001006002DA09ED
:100CDA0001006502C80C0000F894EE27ECBBF1E0B5
:100CEA00FBBFEBBFE5BF8DE0A2E0BB27ED938A9582
:100CFA00E9F780E098E0A0E6ED930197E9F7E4EDE3
:100D0A00FCE085919591009761F0A591B5910590C8
:100D1A001590BF01F00105900D920197E1F7FB01D3
:100D2A00F0CFEFE5EDBFE8E0EEBFC0E6D2E00C940D
:100D3A008810A99A81E08A95F1F7A99881E08A95A5
:100D4A00F1F70895AA9AAB9A9798A898EFE3EBBBA4
:100D5A00F0DF0895BA93AA931A939798A898A9814D
:100D6A00BA81A034E0E0BE0720F4AA9AAB981981B0
:100D7A0005C0AB9AAA98E981E0541E2FE12FE064DE
:100D8A00EF771E2F1BBBD5DF18813CC0BA93AA93FD
:100D9A001A939798A898E981E86BEF7B1E2F1BBBE3
:100DAA00C8DF18812FC0BA93AA93AA81BB81D2DF68
:100DBA00A881B981EBDF24960895AA93979AA898F7
:100DCA00E881EBBBB6DF21960895AA931A930A939A
:100DDA000E949912AC81BB27E6DFE0E4F0E0FA93C7
:100DEA00EA93AC81BB27DFDFAA9A00E010E0013466
:100DFA00E0E01E072CF4A0E0E0DF0F5F1F4FF7CF03
:100E0A0019810881239608951A930A9300E010E045
:100E1A000830E0E01E072CF4A02FD7DF0F5F1F4F2A
:100E2A00F7CF099119910895BA93AA931A93AB81AE
:100E3A00BC8190DFA981BA81A9DF10E0183040F4A3
:100E4A00ED81FE810E949E12A491B7DF1F5FF6CF4B
:100E5A0018812DC1AA930E94F21620E010E0EC81BD
:100E6A001E17E0F400E00830B8F40E94A812E695D4
:100E7A00EC93ED81E1703E2F303021F00E94A812F0
:100E8A00E068EC932F5FEC81E21721F4ED81E6959F
:100E9A00ED8320E00F5FE7CF1F5FE1CF0E94F916D5
:100EAA0028960895AA93EF9721970E94F2160E9416
:100EBA00AF1250DFDE01AB5BBF4F0D90BC91A02D8E
:100ECA0065DF10E01830B8F40E94B612EA0FFB1F73
:100EDA00FA93EA93FE01E55BFF4F0190F081E02D62
:100EEA000E949E12E491EA93DE01A95BBF4FAC9186
:100EFA00B1DF1F5FE7CF00E0FE01EC5BFF4FE0814F
:100F0A000E1708F049C010E0183090F530E0FE01E5
:100F1A00EC5BFF4FE0813E1748F5E32FF0E00E94BB
:100F2A00AF12EA0FFB1FBF01DE01AC5BBF4FAC91F2
:100F3A00BB27E12FF0E00E94CD16DB01AE0FBF1FE9
:100F4A00A034E0E0BE0739F4E0E4F0E0FA93EA9373
:100F5A000E94AF1228DF0E94B612AE0FBF1FEE2703
:100F6A00A00FBE1FAC9129DF3F5FD1CF1F5FCCCF4F
:100F7A00FE01E95BFF4F0190F081E02DFA93EA93BD
:100F8A00DE01A95BBF4FED91FD913196FE93EE9381
:100F9A00DF0109DF0F5FB0CF0E94F916EF962C969A
:100FAA000895AA93A981A13009F077C0EE81F0E0F3
:100FBA00E138A0E0FA0711F4EAEF17C0E039A0E03F
:100FCA00FA0711F4EBEF11C0E839A0E0FA0711F4BF
:100FDA00ECEF0BC0EE38A0E0FA0711F4EDEF05C014
:100FEA00ED38A0E0FA0711F4EEEFEE83AE81A13CF2
:100FFA00A0F0A0916002B0916102A13CE0E0BE07BE
:10100A0064F00E94BD123596E491E03031F00E94FE
:10101A00CA123496E491E03009F418C00E94BD1255
:10102A00DF01E0916202F0E03196EA0FFB1FE491E2
:10103A00F0E0FA93EA93E0916302F0E0FA93EA931C
:10104A00A0916402BB27F0DEE2E001C0E0E0E09399
:10105A006202AE81A13C50F00E94CA12DF01E09107
:10106A006202F0E0EA0FFB1FE49101C0EE81F0E0BA
:10107A000E94D5120E94D512FA93EA93AE8112DF2A
:10108A00EE81F0E0E0936002F0936102EC81E0937C
:10109A006302EA81E09364020AC0EE81F0E00E94F2
:1010AA00D5120E94D512FA93EA93AE81FBDE2796F7
:1010BA000895AA931A930A9310E000E00E94DA12A4
:1010CA0018F4AC81A03009F027C00E94E312EC9119
:1010DA00EA930E94EA120E94EA12E0E00E94EF12EA
:1010EA000E94F312AF81B885EA0FFB1FEF83F887DE
:1010FA000E94FE12A0E8B0E00E94E916EA1BFB0B70
:10110A00AF81B885EA17FB072CF4E0E0EF83E887A4
:10111A000E9403131F5FD2CF0E94DA1218F4AC8127
:10112A00A13009F069C00E94E312AC91A13E21F4FA
:10113A000E940C13A73C09F002C009EF23C00E94C9
:10114A00E312AC91A13E21F40E940C13A33C09F0D6
:10115A0002C007EE17C00E94E312AC91A13E21F42F
:10116A000E940C13A23C09F002C008EE0BC00E94B8
:10117A00E312AC91A13E21F40E940C13A53C09F0A4
:10118A0001C009EE003079F00A930E941413E1E0DD
:10119A000E94EF121E5F0E94FE12AF81B8850E9464
:1011AA001F1300E018C00E94E312EC91EA930E9418
:1011BA001413E9850E94EF120E94E312AC91A03247
:1011CA0019F40E94F31202C00E94FE12AF81B88580
:1011DA000E941F131F5F0E94FE123196AF81B885CD
:1011EA00AE17BF0744F40E94FE12A0E8B0E00E94C6
:1011FA001F130E94031390CFE1ECF0E0E09360022A
:10120A00F0936102198108812B960895E0E0E7BB0B
:10121A00A798EFE0E8BBE0E1E7BBB09903C0E1E0E3
:10122A00F0E00895B19903C0E5E0F0E00895B299BD
:10123A0003C0E9E0F0E00895B39903C0EDE0F0E0FF
:10124A000895E0E2E7BBB09903C0E2E0F0E0089558
:10125A00B19903C0E6E0F0E00895B29903C0EAE06C
:10126A00F0E00895B39903C0EEE0F0E00895E0E4F9
:10127A00E7BBB09903C0E3E0F0E00895B19903C079
:10128A00E7E0F0E00895B29903C0EBE0F0E00895DA
:10129A00B39903C0EFE0F0E00895E0E8E7BBB09946
:1012AA0003C0E4E0F0E00895B19903C0E8E0F0E09B
:1012BA000895B29903C0ECE0F0E00895B39903C031
:1012CA00E0E1F0E00895A79AB09903C0E4E1F0E004
:1012DA000895B19903C0E5E1F0E00895B29903C019
:1012EA00E6E1F0E00895B39903C0E7E1F0E008957C
:1012FA008DCFBA93AA93E09780E3A0E0B0E0ECED3B
:10130A00F9E00E94FE160E94F21621E030E07CDD30
:10131A00FE01B3960E9424130E9427130E943213DF
:10132A000E943513FE0134960E9424130E94401332
:10133A000E944B1329F4ECE0F0E00E9453130FC013
:10134A000E945A1329F4E6E1F0E00E94531307C001
:10135A000E945F1321F4E0E2F0E00E9453130E941E
:10136A00F916E69608950E946413ECE0FAE00E94EA
:10137A00FE160E946C130E9499120E947413FE01B9
:10138A00E75BFF4F0E9424130E942713FE01FE967B
:10139A000E9424130E947B13FE01F3960E942413D9
:1013AA000E943513FE01B8960E9424130E948013EE
:1013BA00FE017D960E9424130E9440130E9432135C
:1013CA000E9485130E948A130E948D13FE01329691
:1013DA000E9424130E9499120E94921349F40E94B7
:1013EA009913EAE6FAE00E94FE160E949E1365C06F
:1013FA000E945A1349F40E949913E4E8FAE00E9401
:10140A00FE160E949E1359C00E945F1349F40E945F
:10141A009913EEE9FAE00E94FE160E949E134DC04F
:10142A00E4E0F0E0E017F10749F40E949913E8EBD1
:10143A00FAE00E94FE160E949E133FC0E5E0F0E02B
:10144A00E017F10749F40E949913E2EDFAE00E94CD
:10145A00FE160E949E1331C0E6E0F0E0E017F107A5
:10146A0049F40E949913ECEEFAE00E94FE160E94DB
:10147A009E1323C0E7E0F0E0E017F10749F40E9469
:10148A009913E6E0FBE00E94FE160E949E1315C027
:10149A00E8E0F0E0E017F10749F40E949913E0E26E
:1014AA00FBE00E94FE160E949E1307C0E7E1F0E0EF
:1014BA00E017F10711F40E94AA1319810881EF9627
:1014CA00A2960895BA93AA932197E8E3E8830E9423
:1014DA00F01600E010E024E130E096DC41E050E054
:1014EA004131E0E05E07E8F4FA01AF81B885AE0F5A
:1014FA00BF1FEC91EA933A932A931A930A93E1E075
:10150A00EA93A1E04EDD265F3F4FECE3F0E0E217FD
:10151A00F30721F40E5F1F4F24E130E04F5F5F4F66
:10152A00DFCF0E94F716299608950E946413EAE312
:10153A00FBE00E94FE160E946C130E9499120E9400
:10154A007413FE01E75BFF4F0E9424130E942713C6
:10155A00FE01FE960E9424130E947B13FE01F3965D
:10156A000E9424130E943513FE01B8960E94241388
:10157A000E948013FE017D960E9424130E9440134C
:10158A000E9432130E9485130E948A130E948D13AF
:10159A00FE0132960E9424130E9499120E9492130D
:1015AA0009F0AAC00E94B213E8E9FBE00E94FE1605
:1015BA00ADA1BEA15697B1F00E94B7130E94BC1309
:1015CA000E9499120E9474130E9456130E94C1131A
:1015DA0021F40E94CC13E1E303C00E94CC13E0E3A0
:1015EA00EC93E6CF0E94D3130E9499120E947413BF
:1015FA000E9456130E94D71321F40E94DF130E94FF
:10160A00E713ABA1BCA1129721F40E94DF130E9439
:10161A00ED13ABA1BCA1139721F40E94F3130E940E
:10162A00E713ABA1BCA1149721F40E94F3130E9403
:10163A00ED13ABA1BCA1159721F40E94FC130E94E3
:10164A00E713ABA1BCA1169721F40E94FC130E94D8
:10165A00ED13ABA1BCA1179721F40E9406140E94B6
:10166A00E713ABA1BCA1189721F40E9406140E94AB
:10167A00ED13ABA1BCA1199721F40E940F140E948B
:10168A00E713ABA1BCA11A9721F40E940F140E9480
:10169A00ED13ABA1BCA11B9721F40E9419140E945F
:1016AA00E713ABA1BCA11C9721F40E9419140E9454
:1016BA00ED13ABA1BCA11D9721F40E9424140E9432
:1016CA00E713ABA1BCA11E9721F40E9424140E9427
:1016DA00ED13ABA1BCA11F9721F40E942E140E9406
:1016EA00E713ABA1BCA1509721F40E942E140E94CB
:1016FA00ED130E945613A7960E945A1309F0AAC026
:10170A000E94B213ECEBFBE00E94FE16ADA1BEA153
:10171A005697B1F00E94B7130E94BC130E94991207
:10172A000E9474130E9456130E94C11321F40E944E
:10173A00CC13E1E303C00E94CC13E0E3EC93E6CFC1
:10174A000E94D3130E9499120E9474130E94561386
:10175A000E94D71321F40E9437140E94E713ABA109
:10176A00BCA1129721F40E9437140E94ED13ABA179
:10177A00BCA1139721F40E9441140E94E713ABA164
:10178A00BCA1149721F40E9441140E94ED13ABA14D
:10179A00BCA1159721F40E944C140E94E713ABA137
:1017AA00BCA1169721F40E944C140E94ED13ABA120
:1017BA00BCA1179721F40E9458140E94E713ABA109
:1017CA00BCA1189721F40E9458140E94ED13ABA1F2
:1017DA00BCA1199721F40E9463140E94E713ABA1DC
:1017EA00BCA11A9721F40E9463140E94ED13ABA1C5
:1017FA00BCA11B9721F40E946D140E94E713ABA1B0
:10180A00BCA11C9721F40E946D140E94ED13ABA198
:10181A00BCA11D9721F40E9478140E94E713ABA182
:10182A00BCA11E9721F40E9478140E94ED13ABA16B
:10183A00BCA11F9721F40E9482140E94E713ABA156
:10184A00BCA1509721F40E9482140E94ED130E94B9
:10185A005613A7960E945F1309F0AAC00E94B213FA
:10186A00E0EEFBE00E94FE16ADA1BEA15697B1F0D4
:10187A000E94B7130E94BC130E9499120E9474130B
:10188A000E9456130E94C11321F40E94CC13E1E373
:10189A0003C00E94CC13E0E3EC93E6CF0E94D3137B
:1018AA000E9499120E9474130E9456130E94D71321
:1018BA0021F40E948B140E94E713ABA1BCA11297DA
:1018CA0021F40E948B140E94ED13ABA1BCA11397C3
:1018DA0021F40E9495140E94E713ABA1BCA11497AE
:1018EA0021F40E9495140E94ED13ABA1BCA1159797
:1018FA0021F40E94A0140E94E713ABA1BCA1169781
:10190A0021F40E94A0140E94ED13ABA1BCA1179769
:10191A0021F40E94AC140E94E713ABA1BCA1189752
:10192A0021F40E94AC140E94ED13ABA1BCA119973B
:10193A0021F40E94B7140E94E713ABA1BCA11A9725
:10194A0021F40E94B7140E94ED13ABA1BCA11B970E
:10195A0021F40E94C3140E94E713ABA1BCA11C97F7
:10196A0021F40E94C3140E94ED13ABA1BCA11D97E0
:10197A0021F40E94D0140E94E713ABA1BCA11E97C8
:10198A0021F40E94D0140E94ED13ABA1BCA11F97B1
:10199A0021F40E94DC140E94E713ABA1BCA150976A
:1019AA0021F40E94DC140E94ED130E945613A7969C
:1019BA00E4E0F0E0E017F10709F0AAC00E94B213D0
:1019CA00E4E0FCE00E94FE16ADA1BEA15697B1F07C
:1019DA000E94B7130E94BC130E9499120E947413AA
:1019EA000E9456130E94C11321F40E94CC13E1E312
:1019FA0003C00E94CC13E0E3EC93E6CF0E94D3131A
:101A0A000E9499120E9474130E9456130E94D713BF
:101A1A0021F40E94E7140E94E713ABA1BCA112971C
:101A2A0021F40E94E7140E94ED13ABA1BCA1139705
:101A3A0021F40E94F1140E94E713ABA1BCA11497F0
:101A4A0021F40E94F1140E94ED13ABA1BCA11597D9
:101A5A0021F40E94FC140E94E713ABA1BCA11697C3
:101A6A0021F40E94FC140E94ED13ABA1BCA11797AC
:101A7A0021F40E9408150E94E713ABA1BCA1189794
:101A8A0021F40E9408150E94ED13ABA1BCA119977D
:101A9A0021F40E9413150E94E713ABA1BCA11A9767
:101AAA0021F40E9413150E94ED13ABA1BCA11B9750
:101ABA0021F40E941D150E94E713ABA1BCA11C973B
:101ACA0021F40E941D150E94ED13ABA1BCA11D9724
:101ADA0021F40E9428150E94E713ABA1BCA11E970E
:101AEA0021F40E9428150E94ED13ABA1BCA11F97F7
:101AFA0021F40E9432150E94E713ABA1BCA15097B2
:101B0A0021F40E9432150E94ED130E945613A796E3
:101B1A00E5E0F0E0E017F10709F0AAC00E94B2136D
:101B2A00E8E2FCE00E94FE16ADA1BEA15697B1F014
:101B3A000E94B7130E94BC130E9499120E94741348
:101B4A000E9456130E94C11321F40E94CC13E1E3B0
:101B5A0003C00E94CC13E0E3EC93E6CF0E94D313B8
:101B6A000E9499120E9474130E9456130E94D7135E
:101B7A0021F40E943B150E94E713ABA1BCA1129766
:101B8A0021F40E943B150E94ED13ABA1BCA113974F
:101B9A0021F40E9444150E94E713ABA1BCA114973B
:101BAA0021F40E9444150E94ED13ABA1BCA1159724
:101BBA0021F40E944E150E94E713ABA1BCA116970F
:101BCA0021F40E944E150E94ED13ABA1BCA11797F8
:101BDA0021F40E9459150E94E713ABA1BCA11897E2
:101BEA0021F40E9459150E94ED13ABA1BCA11997CB
:101BFA0021F40E9463150E94E713ABA1BCA11A97B6
:101C0A0021F40E9463150E94ED13ABA1BCA11B979E
:101C1A0021F40E946E150E94E713ABA1BCA11C9788
:101C2A0021F40E946E150E94ED13ABA1BCA11D9771
:101C3A0021F40E947A150E94E713ABA1BCA11E975A
:101C4A0021F40E947A150E94ED13ABA1BCA11F9743
:101C5A0021F40E9485150E94E713ABA1BCA15097FD
:101C6A0021F40E9485150E94ED130E945613A7962F
:101C7A00E6E0F0E0E017F10709F0AAC00E94B2130B
:101C8A00ECE4FCE00E94FE16ADA1BEA15697B1F0AD
:101C9A000E94B7130E94BC130E9499120E947413E7
:101CAA000E9456130E94C11321F40E94CC13E1E34F
:101CBA0003C00E94CC13E0E3EC93E6CF0E94D31357
:101CCA000E9499120E9474130E9456130E94D713FD
:101CDA0021F40E948F150E94E713ABA1BCA11297B1
:101CEA0021F40E948F150E94ED13ABA1BCA113979A
:101CFA0021F40E949A150E94E713ABA1BCA1149784
:101D0A0021F40E949A150E94ED13ABA1BCA115976C
:101D1A0021F40E94A6150E94E713ABA1BCA1169755
:101D2A0021F40E94A6150E94ED13ABA1BCA117973E
:101D3A0021F40E94B3150E94E713ABA1BCA1189726
:101D4A0021F40E94B3150E94ED13ABA1BCA119970F
:101D5A0021F40E94BF150E94E713ABA1BCA11A97F8
:101D6A0021F40E94BF150E94ED13ABA1BCA11B97E1
:101D7A0021F40E94CA150E94E713ABA1BCA11C97CB
:101D8A0021F40E94CA150E94ED13ABA1BCA11D97B4
:101D9A0021F40E94D6150E94E713ABA1BCA11E979D
:101DAA0021F40E94D6150E94ED13ABA1BCA11F9786
:101DBA0021F40E94E1150E94E713ABA1BCA1509740
:101DCA0021F40E94E1150E94ED130E945613A79672
:101DDA00E7E0F0E0E017F10709F0AAC00E94B213A9
:101DEA00E0E7FCE00E94FE16ADA1BEA15697B1F055
:101DFA000E94B7130E94BC130E9499120E94741386
:101E0A000E9456130E94C11321F40E94CC13E1E3ED
:101E1A0003C00E94CC13E0E3EC93E6CF0E94D313F5
:101E2A000E9499120E9474130E9456130E94D7139B
:101E3A0021F40E94EB150E94E713ABA1BCA11297F3
:101E4A0021F40E94EB150E94ED13ABA1BCA11397DC
:101E5A0021F40E94F4150E94E713ABA1BCA11497C8
:101E6A0021F40E94F4150E94ED13ABA1BCA11597B1
:101E7A0021F40E94FE150E94E713ABA1BCA116979C
:101E8A0021F40E94FE150E94ED13ABA1BCA1179785
:101E9A0021F40E9409160E94E713ABA1BCA118976E
:101EAA0021F40E9409160E94ED13ABA1BCA1199757
:101EBA0021F40E9413160E94E713ABA1BCA11A9742
:101ECA0021F40E9413160E94ED13ABA1BCA11B972B
:101EDA0021F40E941E160E94E713ABA1BCA11C9715
:101EEA0021F40E941E160E94ED13ABA1BCA11D97FE
:101EFA0021F40E942A160E94E713ABA1BCA11E97E7
:101F0A0021F40E942A160E94ED13ABA1BCA11F97CF
:101F1A0021F40E9435160E94E713ABA1BCA1509789
:101F2A0021F40E9435160E94ED130E945613A796BB
:101F3A00E8E0F0E0E017F10709F0AAC00E94B21346
:101F4A00E4E9FCE00E94FE16ADA1BEA15697B1F0ED
:101F5A000E94B7130E94BC130E9499120E94741324
:101F6A000E9456130E94C11321F40E94CC13E1E38C
:101F7A0003C00E94CC13E0E3EC93E6CF0E94D31394
:101F8A000E9499120E9474130E9456130E94D7133A
:101F9A0021F40E943F160E94E713ABA1BCA112973D
:101FAA0021F40E943F160E94ED13ABA1BCA1139726
:101FBA0021F40E9448160E94E713ABA1BCA1149712
:101FCA0021F40E9448160E94ED13ABA1BCA11597FB
:101FDA0021F40E9452160E94E713ABA1BCA11697E6
:101FEA0021F40E9452160E94ED13ABA1BCA11797CF
:101FFA0021F40E945D160E94E713ABA1BCA11897B9
:10200A0021F40E945D160E94ED13ABA1BCA11997A1
:10201A0021F40E9467160E94E713ABA1BCA11A978C
:10202A0021F40E9467160E94ED13ABA1BCA11B9775
:10203A0021F40E9470160E94E713ABA1BCA11C9761
:10204A0021F40E9470160E94ED13ABA1BCA11D974A
:10205A0021F40E947A160E94E713ABA1BCA11E9735
:10206A0021F40E947A160E94ED13ABA1BCA11F971E
:10207A0021F40E9483160E94E713ABA1BCA15097DA
:10208A0021F40E9483160E94ED130E945613A7960C
:10209A00E7E1F0E0E017F10711F40E94AA131981B1
:1020AA000881EF96A2960895BA93AA93ED978BE0CA
:1020BA00A0E0B0E0E8EBFCE00E94FE161A930A9357
:1020CA000E940907E4ECFCE0FA93EA93FE013F96CA
:1020DA00662777270E94E41684E00E944712269614
:1020EA000E948A130E943513FE013D96FA93EA93E1
:1020FA00E2E0F0E0FA93EA930E9440131981088122
:10210A00EF9622960895AB97E1E0E9A3E0E0EAA30F
:10211A00EBA3ECA3E0E8E1BBEFE0E4BBE0E0EBB962
:10212A00E8E1EAB9E6E8E0BDE0E0E0BDE3E3E9B909
:10213A000E94A706A9A1BAA1119741F40E948B1681
:10214A002CF4A9A1BAA1D5D8E9A3FAA3A9A1BAA145
:10215A001C9741F40E948B162CF4A9A1BAA103D9A9
:10216A00E9A3FAA3A9A1BAA1569741F40E948B1632
:10217A002CF4A9A1BAA1D9D9E9A3FAA3A9A1BAA110
:10218A00909741F40E948B162CF4A9A1BAA18CDF76
:10219A00E9A3FAA3CFCFFFCF5F9BFECFECB108959F
:1021AA00AA935D9BFECFE881ECB921960895BA9374
:1021BA00AA931A93A981BA81ED91A983BA831E2F92
:1021CA00E03019F0A12FECDFF5CFAAE0E9DF1881A2
:1021DA0023960895BA93AA931A93A981BA81E0E043
:1021EA00EC93AB81BC81EC911E2FE03019F0E0E05A
:1021FA00EC9302C0D1DF1E2FE12F18812596089596
:10220A00FF92BA93AA9324970E94F016E0E0F0E0B6
:10221A00E887F9874E2FE889F9893196E88BF98B97
:10222A003197E4913E2FE03009F425C10E949116BE
:10223A00C1F0EDB7FEB7FA93EA934F930E94961650
:10224A004F913E2FE03019F00E94911609F407C011
:10225A000E949C161CF4EFEFFFEF0FC1EACF432F49
:10226A0009C1353209F0EEC050E0E889F9893591A3
:10227A00E88BF98B303310F03A3308F007C0AAE044
:10228A005A9F502DE32FE0535E0FEFCF303009F401
:10229A00F2C0EDB7FEB7FA93EA934F930E949616EF
:1022AA004F912E2FAE2F0E947F12E03039F00E94FC
:1022BA009C161CF4EFEFFFEFE0C0EBCF203009F4DF
:1022CA00D1C0422F503009F45FEFE32FE33699F47F
:1022DA000E94A116EDB7FEB7FA93EA934F930E94B4
:1022EA0096164F91D801EC930E949C161CF4EFEFBE
:1022FA00FFEFC3C0A1C0E33741F50E94A116E52F45
:10230A005150E030F1F0EDB7FEB7FA93EA934F93EC
:10231A000E9496164F913E2FE03019F00E949116B6
:10232A0039F00E949C161CF4EFEFFFEFA6C009C01B
:10233A001F930F930F5F1F4FE32FAF91BF91EC9342
:10234A00DECFD801E0E0EC9377C06894F1F8E89426
:10235A00F2F8E32FE43611F0E93619F4E894F1F8CB
:10236A0002C0E53711F42AE008C0E83711F420E189
:10237A0004C0E53209F466C07EC0E0E0EE83EF8374
:10238A006894F0F8E52F5150E03009F446C0EDB7F3
:10239A00FEB7FA93EA934F930E9496164F913E2FF7
:1023AA00E13238F40E949C161CF4EFEFFFEF65C08F
:1023BA0017C0F1FC08C06894F1F83D3211F4F2F844
:1023CA00E1CF3B32F9F2203131F4A32F0E948A1275
:1023DA00E03031F009C0A32F0E947612E03021F4D8
:1023EA00F0FC49C0432F19C0313610F0375505C0EB
:1023FA00313410F0375301C03053E22FAE81BF8120
:10240A00F0E00E94C516DF01E32FF0E0EA0FFB1FA0
:10241A00EE83FF83E894F0F8B5CF0E94A116F2FE8E
:10242A0006C0EE81FF810E94BA16EE83FF83EE8119
:10243A00FF81D801ED93FC93E885F9853196E88709
:10244A00F98718C0EDB7FEB7FA93EA934F930E9443
:10245A0096164F91E31771F00E949C161CF4EFEF49
:10246A00FFEF0BC0E885F985309719F4EFEFFFEF1E
:10247A0004C001C0D0CEE885F9850E94F71662969D
:10248A00FF900895FF92F82E23971A930A93DE017C
:10249A0011960E94B6168D01E0E0EB83EC83DE0113
:1024AA0015960E94B6160E94E016FA93EA931A93BA
:1024BA000A93EFEEF0E1FA93EA93DE011896A0DEB2
:1024CA00198108812596FF900895BA93AA93A99134
:1024DA00B991EE27FF276D91662311F03196FBCF54
:1024EA000895AA93E1E0F991F03310F0FA3308F075
:1024FA00EE270895AA93E1E0F991F03229F0F93034
:10250A0010F0FE3008F0EE270895AA93E1E0F99161
:10251A00F05340F0FA3038F0FF75F750FA3010F007
:10252A00F03108F0EE270895E0E0F0E0FA93EA933C
:10253A0008950E94BE16DF01E12FF0E0EA0FFB1FAB
:10254A00EC5AFF4F0895AE81BF81EE27A10FBE1F3F
:10255A00EC910895DE01A95BBF4F0D90BC91A02DAF
:10256A000895E12FF0E00E94BE16DE011496089548
:10257A00E0916002F0916102E15CF040A6E0B0E017
:10258A000E94C516EC5AF74F0895EE81F0E0E15C1F
:10259A00F040A6E0B0E00E94C516EC5AF74F089545
:1025AA00FA93EA93EE81FF810895A985BA850E947C
:1025BA006A12A12FB0E0AE17BF070895E12FF0E02D
:1025CA00A985BA85AE0FBF1F0895E885F985FA93E4
:1025DA00EA930895EA93A9850C94D607EA81F0E074
:1025EA00E7FDFFEF3896DF01EB81F0E00E94CD16A0
:1025FA000895EB81A8E0EA9FF0010895EB81F0E0ED
:10260A00AD81BE81EA0FFB1FED83FE830895E12FA2
:10261A00F0E0A985BA85EA0FFB1FA1810895EC8134
:10262A00A8E0EA9FF001A885B985AE1BBF0BBA9353
:10263A00AA93CBCFAE1BBF0BAF83B8870895FA938B
:10264A00EA9372CFE1E0F0E0FA93EA93E0E0EA93EA
:10265A00E1E0EA93A0E00C945E08FE017296EFCFE7
:10266A00E3E0F0E0FA93EA93E0E0EA93E1E0EA9348
:10267A00A0E00C945E08E5E0F0E0FA93EA93E0E06B
:10268A00EA93E1E0EA93A0E00C945E080E940B0949
:10269A008F01E1E0F0E0E017F1070895ECABFDAB44
:1026AA000895AAEFB0E00C94AC16E2E0F0E0E0176F
:1026BA00F1070895E3E0F0E0E017F1070895BA930F
:1026CA00AA93EF976E978DE5A0E0B0E008951A936C
:1026DA000A930E940907FE01EC5AFF4FB0CFE0E0CF
:1026EA00EA93E1E0EA93A0E00C945E08E2E0F0E00D
:1026FA00FA93EA93F4CFE4E0F0E0FA93EA93EFCFA7
:10270A00E6E0F0E0FA93EA93EACFFE01379697CF34
:10271A00E7E0F0E0FA93EA93E2CFE1E0EA93EA93A2
:10272A00A0E00E945E08B2CF699789E1A0E0B0E01C
:10273A000895DE010E94DC10ECE0F0E0DE01A8580A
:10274A00BF4FED93FC9369960895E1E0F0E0DE0156
:10275A00A15ABF4FED93FC930895A79783E2A0E097
:10276A00B0E00895DE0151960E94670A9ACF0E944E
:10277A000907FE013D9663CF0E940B09EDA3FEA354
:10278A00DE015196AE0FBF1FAC91A0330895EDA1A3
:10279A00FEA1DE015196AE0FBF1F08950E940907E0
:1027AA00FE014DCF0E940B09EBA3FCA3ABA1BCA178
:1027BA0011970895E0E3EAA3EBA3ECA3EDA3EEA33C
:1027CA00EFA30895E0E3E8A7DE0151960C94DC102C
:1027DA00E1E3E8A7DE0151960C94DC10E0E3EAA3FA
:1027EA00EBA3ECA3EDA3EEA3E1E3EFA30895E0E3EB
:1027FA00EAA3EBA3ECA3EDA3E1E3EEA3E0E3EFA3EB
:10280A000895E0E3EAA3EBA3ECA3EDA3E1E3EEA3CF
:10281A00EFA30895E0E3EAA3EBA3ECA3E1E3EDA3BE
:10282A00E0E3EEA3EFA30895E0E3EAA3EBA3ECA3AE
:10283A00E1E3EDA3E0E3EEA3E1E3EFA30895E0E330
:10284A00EAA3EBA3ECA3E1E3EDA3EEA3E0E3EFA39A
:10285A000895E0E3EAA3EBA3ECA3E1E3EDA3EEA37F
:10286A00EFA30895E0E3EAA3EBA3E1E3ECA3E0E33B
:10287A00EDA3EEA3EFA30895E0E3EAA3EBA3E1E35C
:10288A00ECA3E0E3EDA3EEA3E1E3EFA30895E0E315
:10289A00EAA3EBA3E1E3ECA3E0E3EDA3E1E3EEA318
:1028AA00E0E3EFA30895E0E3EAA3EBA3E1E3ECA3FB
:1028BA00E0E3EDA3E1E3EEA3EFA30895E0E3EAA3E7
:1028CA00EBA3E1E3ECA3EDA3E0E3EEA3EFA308950A
:1028DA00E0E3EAA3EBA3E1E3ECA3EDA3E0E3EEA3D9
:1028EA00E1E3EFA30895E0E3EAA3EBA3E1E3ECA3BA
:1028FA00EDA3EEA3E0E3EFA30895E0E3EAA3EBA3DD
:10290A00E1E3ECA3EDA3EEA3EFA30895E0E3EAA3CA
:10291A00E1E3EBA3E0E3ECA3EDA3EEA3EFA30895B9
:10292A00E0E3EAA3E1E3EBA3E0E3ECA3EDA3EEA388
:10293A00E1E3EFA30895E0E3EAA3E1E3EBA3E0E335
:10294A00ECA3EDA3E1E3EEA3E0E3EFA30895E0E354
:10295A00EAA3E1E3EBA3E0E3ECA3EDA3E1E3EEA357
:10296A00EFA30895E0E3EAA3E1E3EBA3E0E3ECA33A
:10297A00E1E3EDA3E0E3EEA3EFA30895E0E3EAA326
:10298A00E1E3EBA3E0E3ECA3E1E3EDA3E0E3EEA3F1
:10299A00E1E3EFA30895E0E3EAA3E1E3EBA3E0E3D5
:1029AA00ECA3E1E3EDA3EEA3E0E3EFA30895E0E3F4
:1029BA00EAA3E1E3EBA3E0E3ECA3E1E3EDA3EEA3F7
:1029CA00EFA30895E0E3EAA3E1E3EBA3ECA3E0E3DA
:1029DA00EDA3EEA3EFA30895E0E3EAA3E1E3EBA3FB
:1029EA00ECA3E0E3EDA3EEA3E1E3EFA30895E0E3B4
:1029FA00EAA3E1E3EBA3ECA3E0E3EDA3E1E3EEA3B7
:102A0A00E0E3EFA30895E0E3EAA3E1E3EBA3ECA399
:102A1A00E0E3EDA3E1E3EEA3EFA30895E0E3EAA385
:102A2A00E1E3EBA3ECA3EDA3E0E3EEA3EFA30895A8
:102A3A00E0E3EAA3E1E3EBA3ECA3EDA3E0E3EEA377
:102A4A00E1E3EFA30895E0E3EAA3E1E3EBA3ECA358
:102A5A00EDA3EEA3E0E3EFA30895E0E3EAA3E1E345
:102A6A00EBA3ECA3EDA3EEA3EFA30895E1E3EAA39E
:102A7A00E0E3EBA3ECA3EDA3EEA3EFA30895E1E358
:102A8A00EAA3E0E3EBA3ECA3EDA3EEA3E1E3EFA358
:102A9A000895E1E3EAA3E0E3EBA3ECA3EDA3E1E30A
:102AAA00EEA3E0E3EFA30895E1E3EAA3E0E3EBA3F7
:102ABA00ECA3EDA3E1E3EEA3EFA30895E1E3EAA318
:102ACA00E0E3EBA3ECA3E1E3EDA3E0E3EEA3EFA3E2
:102ADA000895E1E3EAA3E0E3EBA3ECA3E1E3EDA3CA
:102AEA00E0E3EEA3E1E3EFA30895E1E3EAA3E0E381
:102AFA00EBA3ECA3E1E3EDA3EEA3E0E3EFA30895D8
:102B0A00E1E3EAA3E0E3EBA3ECA3E1E3EDA3EEA3A5
:102B1A00EFA30895E1E3EAA3E0E3EBA3E1E3ECA387
:102B2A00E0E3EDA3EEA3EFA30895E1E3EAA3E0E374
:102B3A00EBA3E1E3ECA3E0E3EDA3EEA3E1E3EFA370
:102B4A000895E1E3EAA3E0E3EBA3E1E3ECA3E0E326
:102B5A00EDA3E1E3EEA3E0E3EFA30895E1E3EAA343
:102B6A00E0E3EBA3E1E3ECA3E0E3EDA3E1E3EEA30F
:102B7A00EFA30895E1E3EAA3E0E3EBA3E1E3ECA327
:102B8A00EDA3E0E3EEA3EFA30895E1E3EAA3E0E314
:102B9A00EBA3E1E3ECA3EDA3E0E3EEA3E1E3EFA310
:102BAA000895E1E3EAA3E0E3EBA3E1E3ECA3EDA3F9
:102BBA00EEA3E0E3EFA30895E1E3EAA3E0E3EBA3E6
:102BCA00E1E3ECA3EDA3EEA3EFA30895E1E3EAA307
:102BDA00EBA3E0E3ECA3EDA3EEA3EFA30895E1E3F7
:102BEA00EAA3EBA3E0E3ECA3EDA3EEA3E1E3EFA3F7
:102BFA000895E1E3EAA3EBA3E0E3ECA3EDA3E1E3A9
:102C0A00EEA3E0E3EFA30895E1E3EAA3EBA3E0E395
:102C1A00ECA3EDA3E1E3EEA3EFA30895E1E3EAA3B6
:102C2A00EBA3E0E3ECA3E1E3EDA3E0E3EEA3EFA380
:102C3A000895E1E3EAA3EBA3E0E3ECA3E1E3EDA368
:102C4A00E0E3EEA3E1E3EFA30895E1E3EAA3EBA354
:102C5A00E0E3ECA3E1E3EDA3EEA3E0E3EFA3089541
:102C6A00E1E3EAA3EBA3E0E3ECA3E1E3EDA3EEA344
:102C7A00EFA30895E1E3EAA3EBA3ECA3E0E3EDA35A
:102C8A00EEA3EFA30895E1E3EAA3EBA3ECA3E0E349
:102C9A00EDA3EEA3E1E3EFA30895E1E3EAA3EBA337
:102CAA00ECA3E0E3EDA3E1E3EEA3E0E3EFA30895F1
:102CBA00E1E3EAA3EBA3ECA3E0E3EDA3E1E3EEA3F4
:102CCA00EFA30895E1E3EAA3EBA3ECA3EDA3E0E30A
:102CDA00EEA3EFA30895E1E3EAA3EBA3ECA3EDA32C
:102CEA00E0E3EEA3E1E3EFA30895E1E3EAA3EBA3B4
:102CFA00ECA3EDA3EEA3E0E3EFA30895E1E3EAA3D7
:102D0A00EBA3ECA3EDA3EEA3EFA30895ABA1BCA1A3
:102D1A00AF3FE0E0BE070895A32F0E947F12E03084
:102D2A000895AC85BD85EE85FF8509950895AA8528
:102D3A00BB85AC91A0300895EE85FF853497EE8768
:102D4A00FF87AE85BF8514960D911C910895109644
:102D5A0039F08AEF90E00197F1F7A8951197C9F732
:102D6A0008950024AF0DB01D0895F195E195F04046
:102D7A000895EE0FFF1FEE0FFF1FEE0FFF1F0895BE
:102D8A00FA9FF02DEB9FF00DEA9FE02DF10D0895CB
:102D9A0004D0F6DF0EF4E9DF0895E894F7FF02C0E5
:102DAA00E4DF6894B7FF06C0A095B095119600F8C5
:102DBA00039400FA0895ED91FC91119708957A937E
:102DCA006A93FA93EA9308951B2EBF2FF12D1A2EB8
:102DDA00AE2FE12D08955A934A933A932A931A9360
:102DEA000A9308955D814C813B812A81198108816A
:102DFA000895AC0FBD1F05900D928A95E1F70895CD
:00000001FF
